{
  "contractName": "MyContract",
  "abi": [
    {
      "inputs": [],
      "name": "numero3",
      "outputs": [
        {
          "internalType": "uint256",
          "name": "",
          "type": "uint256"
        }
      ],
      "stateMutability": "view",
      "type": "function"
    }
  ],
  "bytecode": "0x6080604052600a6008556014600955601e600a5534801561001f57600080fd5b5060b38061002e6000396000f3fe6080604052348015600f57600080fd5b506004361060285760003560e01c80638c9b41c514602d575b600080fd5b60336047565b604051603e9190605a565b60405180910390f35b600a5481565b6054816073565b82525050565b6000602082019050606d6000830184604d565b92915050565b600081905091905056fea264697066735822122057356473abe0ce162869fd4066855d76a3598e54d00508cc3162e4d04bc9d26464736f6c63430008000033",
  "immutableReferences": {},
  "source": "pragma solidity ^0.8.0;\r\n\r\ncontract MyContract {\r\n    bool status; //true o false\r\n    uint price;\r\n    address indirizzo; //0xjdij33\r\n    bytes32 bytesVariable;\r\n    //variabili a dimensione non fissa\r\n    string name;\r\n    bytes bytesVariable2;\r\n    uint[] vettore;\r\n    mapping(uint => string) dizionario;\r\n    //variabili definite ad hoc\r\n    struct Persona {\r\n        string name;\r\n        string surname;\r\n        int age;\r\n    }\r\n    enum Stutus {\r\n        ON, \r\n        OFF\r\n    }\r\n    //visibilita'\r\n    uint private numero = 10; //solo nello smart contract\r\n    uint internal numero2 = 20; //solo negli smart contract che interagiscono con questo smart contract\r\n    uint public numero3 = 30;\r\n}",
  "sourcePath": "C:\\Users\\angel\\OneDrive\\Desktop\\programmazione\\09)SOLIDITY\\02) tipi di variabile\\contracts\\MyContract.sol",
  "compiler": {
    "name": "solc",
    "version": "0.8.0+commit.c7dfd78e.Emscripten.clang"
  },
  "schemaVersion": "3.4.7",
  "updatedAt": "2022-05-04T09:15:43.850Z",
  "devdoc": {
    "kind": "dev",
    "methods": {},
    "version": 1
  },
  "userdoc": {
    "kind": "user",
    "methods": {},
    "version": 1
  }
}